:02000004080AE8
:1000000000000A08543A0A0800000600060005012C
:080010000402350800000000A5
:04001800EC350A08B1
:1000200009480A4908B5884205D0094A824202D0E7
:10003000121A03F0ABF90748074A0021121A03F01D
:10004000CDF9064808BD00BF00000020BC390A08F1
:100050007000002070000020A4050020A4050020EE
:1000600070B502F0A5FB0025054E064CA41BA408A4
:10007000A54200D170BD56F8043B98470135F7E71B
:1000800084390A08A4390A0800F06CB808B500F0F1
:1000900071F8BDE8084002F04DBB00F085BC00F0EF
:1000A00083BC00F089BC000000210C2008B5024A86
:1000B00000F0CEFBFEE700BFFD050A080078B0FAAD
:1000C00080F0400970470123037070477047006A51
:1000D0000368DB681847000010B50446094B03604D
:1000E00001F0ECF8214601F0FDFA02F027FA02F0E7
:1000F0000BFA2046044B40F8043B01F0E1F920469E
:1001000010BD00BF44360A082C360A0810B5044654
:10011000FFF7E2FF2046242102F0D9FB204610BD64
:1001200008B5002000F07AFA4FF47A72002302F04A
:10013000A3FF08BD0EB410B50023016820208DB0C8
:100140000FAA52F8044BCDE90403CDE90042039213
:100150001E2004AA00F084FB0DB0BDE8104003B0DF
:10016000704700000149024800F028B9801A0600D3
:10017000A000002030B5174D174C2B7887B013F036
:10018000010FBFF35B8F09D12846FFF797FF28B116
:10019000FFF7C6FF20602846FFF795FFFFF7C0FF77
:1001A0002368C01A052813D9FFF7BAFF012320607E
:1001B00004AA0A4802A900F0B3F948B9DDE904230A
:1001C0000749CDE90023DDE902230648FFF7B2FF26
:1001D00007B030BD7400002078000020A00000208F
:1001E00000360A08B400002070B51426D0E9005388
:1001F000044606FB0356AE4204D0284601F0E8FF51
:100200001435F8E7206800F0D7FB204670BD88421F
:10021000F8B504460D46164616D9904215D2A2F1FD
:100220001406751AA1F114072C44B7421CD02CB146
:100230003146204602F033F8337C2374304601F017
:10024000C7FF143E143CF0E70ED0B5420CD02CB1E1
:100250002946204602F023F82B7C2374284601F01F
:10026000B7FF14351434F0E7F8BD00232DE9F04151
:10027000C0E9003383604F6804469F420E4624DD88
:100280004FF0140808FB07F000F08EFB0546E0B1C4
:10029000D4E9001208FB0212FFF7B9FF206800F052
:1002A0008BFB2560A760D6E9007308FB0378B8458F
:1002B00009D03946284602F00CF83B7C143505F885
:1002C000043C1437F3E7736863602046BDE8F081AF
:1002D000002370B58CB0CDE90033029302F02EF903
:1002E000204C05462646694603A8FFF7BEFF03A932
:1002F00006A8FFF7BAFF1C4B06A946F8043B09A85D
:10030000FFF7B3FF09AA1E21304601F03DFB09A803
:10031000FFF76AFF06A8FFF767FF144B03A82360E7
:100320002562FFF761FF124B236002F007F94FF4DB
:10033000165102F0E5F800F0C1FF214601F0B7FACE
:100340006846FFF751FF0B4A0B49204602F0BAFA04
:1003500002F078FA44220146084800F02AF80CB06E
:1003600070BD00BF7C0000202C360A0834370A0814
:1003700044360A0870000020D9000A08A0000020B6
:100380000368C9B29B68184703460144FF2099429D
:100390000ED013F8012B5040082210F0800F4FEAC6
:1003A000400018BF80F03100013AC0B2F5D1EEE74D
:1003B00070470160002142710171704738B50446F1
:1003C00000680D4600F0C1FB58B9206800F0C1FB81
:1003D0002068294600F078FB2068BDE8384000F02E
:1003E00077BB38BD10B50446006800F0B7FBB8B164
:1003F0006179206800F09EFB30212068FFF7C0FF84
:1004000093212068FFF7BCFF206800F09BFB00B938
:100410002071206800F0ABFB2079B0FA80F0400931
:1004200010BD000000000000F7B504460F46154659
:1004300041790622006800F07AFB206803681B6996
:10044000984706285AD1206803685B699847064692
:100450008DF80000206803685B699847C3B243EADF
:10046000062080B28DF8013002F08AFB26A3D3E982
:10047000002302F0EFFB26A3D3E9002302F014FDD2
:100480000022254B02F02EFAC7E90001206803681C
:100490005B699847022106466846FFF775FF86426A
:1004A00028D1206803685B69984706468DF80400E8
:1004B000206803685B699847C3B243EA062080B2AC
:1004C0008DF8053002F04CFB0022144B02F0C2FB09
:1004D0000FA3D3E9002302F0E7FCC5E9000120687F
:1004E00003685B6998470221044601A8FFF74CFFA7
:1004F000844206D06FF0020003B0F0BD4FF0FF3031
:10050000FAE70020F8E700BF0000000000E06540C7
:1005100000000000E0FFEF4000804640000059402E
:10052000F8B51D46037904460E4617463BB92068C8
:1005300000F014FB50B96FF001052846F8BDFFF735
:1005400051FF0028F3D14FF0FF35F6E761792068BD
:1005500000F0F0FA24212068FFF712FF3DB1022DD0
:100560001BD00B212068FFF70BFF0F2504E0294665
:100570002068FFF705FF1925206800F0E3FA90B91D
:10058000284600F039FA3A4631462046FFF74CFF3C
:100590000546206800F0EBFACFE716212068FFF748
:1005A000EFFE0A25E8E74FF0FF35F2E708B5024B0A
:1005B0001B685B6C019308BDD001060808B5024BAF
:1005C0001B689B6C019308BDD001060808B5024B5F
:1005D0001B68DB6C019308BDD001060808B5024B0F
:1005E0001B685B6D019308BDD001060808B5024B7E
:1005F0001B685B68019308BD9C01060808B5024BA7
:100600001B68DB68019308BD9C01060808B5024B16
:100610001B685B69019308BD9C01060808B5024B85
:100620001B68DB6D019308BD9C01060808B5024BF1
:100630001B681B6C019308BDAC01060808B5024B92
:100640001B68DB6C019308BDAC01060808B5024BC2
:100650001B689B6D019308BDAC01060808B5024BF1
:100660001B68DB6D019308BDAC01060808B5024BA1
:100670001B681B6E019308BDAC01060808B5024B50
:100680001B685B6E019308BDAC01060808B5024B00
:100690001B689B6E019308BDAC01060808B5024BB0
:1006A0001B68DB6E019308BDAC01060808B5024B60
:1006B0001B681B6F019308BDAC01060808B5024B0F
:1006C0001B685B6F019308BDAC01060808B5034BBE
:1006D0001B68D3F88030019308BD0000AC01060808
:1006E00008B5034B1B68D3F88430019308BD0000A4
:1006F000AC01060808B5034B1B68D3F8883001939A
:1007000008BD0000AC01060808B5034B1B68D3F810
:100710008C30019308BD0000AC01060808B5034BFE
:100720001B68D3F89030019308BD0000AC010608A7
:1007300008B5024B1B689B69019308BDC4010608FC
:1007400008B5024B1B681B6A019308BDC40106086B
:1007500008B5024B1B685B6A019308BDC40106081B
:1007600008B5024B1B689B6A019308BDC4010608CB
:1007700008B5024B1B68DB6A019308BDC40106087B
:1007800008B5024B1B681B6B019308BDC40106082A
:1007900008B5024B1B685B6B019308BDC4010608DA
:1007A00008B5024B1B681B6C019308BDC401060809
:1007B00008B5024B1B68DB6C019308BDC401060839
:1007C00008B5024B1B681B68019308BDD8010608D9
:1007D00008B5024B1B685B68019308BDD801060889
:1007E00008B5024B1B689B68019308BDD801060839
:1007F00008B5024B1B681B69019308BDD8010608A8
:1008000008B5024B1B685B69019308BDD801060857
:1008100008B5024B1B689B69019308BDD801060807
:1008200008B5024B1B68DB69019308BDD8010608B7
:1008300008B5024B1B681B6A019308BDD801060866
:1008400008B5024B1B689B6C019308BDC0010608EC
:1008500008B5024B1B685B6B019308BDA801020839
:1008600008B5024B1B685B6D019308BDA801020827
:1008700008B5024B1B68DB6E019308BDA801020896
:1008800008B5024B1B681B6F019308BDA801020845
:1008900008B5024B1B685B68019308BDA4010608FC
:1008A00008B5024B1B685B69019308BDA4010608EB
:1008B00008B5034B1B68D3F89030019308BD0000C6
:1008C000A401060808B5034B1B68D3F89C300193BC
:1008D00008BD0000A401060808B5024B1B68DB6BCD
:1008E000019308BDCC01060808B5024B1B685B6884
:1008F000019308BDC801060808B5024B1B689B6838
:10090000019308BDC801060808B5024B1B68DB68E7
:10091000019308BDC801060808B5024B1B681B6996
:10092000019308BDC801060808B5024B1B685B6946
:10093000019308BDC801060808B5024B1B689B69F6
:10094000019308BDC801060808B5024B1B68DB69A6
:10095000019308BDC801060808B5024B1B681B6A55
:10096000019308BDC801060808B5024B1B681B6B44
:10097000019308BDC801060808B5024B1B685B6BF4
:10098000019308BDC801060808B5024B1B681B6C23
:10099000019308BDC801060808B5024B1B685B6CD3
:1009A000019308BDC801060808B5024B1B681B6807
:1009B000019308BDA001060808B5024B1B685B68DF
:1009C000019308BDA001060808B5024B1B689B688F
:1009D000019308BDA001060808B5024B1B685B6ABD
:1009E000019308BDA001060808B5024B1B685B6CAB
:1009F000019308BDA00106080021FFF751BF10B503
:100A00008368044613B1032201469847204610BD6F
:100A100038B5046805467CB16368013B63605BB927
:100A2000236820469B689847A368013BA3601BB9D5
:100A300023682046DB689847284638BD0B6803606A
:100A400013B15A6801325A6070477047F8B50646CC
:100A500015460C468F18BC4206D0336830469B685A
:100A600014F8011B9847F6E72846F8BD0022007CE1
:100A7000FFF7FCBD0021007CFFF700BE0021007CD9
:100A8000FFF704BE0021007CFFF708BE0021007CB8
:100A9000FFF70CBE10B50446142101F018FF2046E4
:100AA00010BD000010B54FF47A73044608460021CB
:100AB000C4E90113034B114623602074FFF706FEBF
:100AC000204610BD5C360A080022007CFFF7AEBD50
:100AD0000023007C1A461946FFF7B0BD7FB50022FF
:100AE0001423CDE90122ADF804300B78007C8DF899
:100AF00008304B680393CB6804930B7A01A90593E4
:100B0000FFF70CFE07B05DF804FB1FB5003B8DF846
:100B100000104FF0640118BF012303916946019250
:100B20008DF80830FFF7DAFF05B05DF804FB01230C
:100B3000FFF7EBBF0022007CFFF788BD0022007C9E
:100B4000FFF78CBD0121FFF7F9BF0021007CFFF703
:100B5000B5BD0022007C1146FFF7C2BD08B50021DB
:100B6000007CFFF7C7FDB0FA80F0400908BD08B56A
:100B70000021007CFFF7C8FDB0FA80F0400908BDF5
:100B8000704710B50446182101F0A1FE204610BDA3
:100B9000F8B50E46002400F10807051D17F8011DE1
:100BA0000A22304601F0B1FAAF42044401D1204696
:100BB000F8BD002CF2D02E21304601F097FA044403
:100BC000ECE7000010B50446044B1122002140F868
:100BD000043B02F003FC204610BD00BF84360A0827
:100BE0000346074A10B543F8042B01F1100251F8EF
:100BF000044B914243F8044BF9D10A781A7010BDA6
:100C000084360A08024AC0E90021042202757047AE
:100C100084360A0810B59DF8084044EA03240423EA
:100C200044EA024444EA01644460037510BD0000D4
:100C300037B5044D05609DF818500095FFF7EAFFA1
:100C400003B030BD84360A08012200F1100313F806
:100C5000101C1846012908D153F8041C02EB41026C
:100C6000013A03F11003F2D17047022904BF53F88F
:100C7000041C5218F4E70EB42DE9F04187B000AF20
:100C800007F1340555F8048B04462B4642461021E3
:100C900007F108007D60FFF79FFE0F281BD900F1C8
:100CA000080323F007036E46ADEB030D4246411CDB
:100CB0002B4668467D60FFF78FFE021E04DD236829
:100CC000694620469B689847B5461C37BD46BDE837
:100CD000F04103B070470028F7D0236802469B68B4
:100CE000204607F108019847EFE710B5044603686E
:100CF0009B689847A368013BA3602BB923682046F3
:100D0000BDE81040DB68184710BD07B503688DF8D3
:100D1000071001229B680DF10701984703B05DF8A9
:100D200004FB38B50B68044603604D6843689D4278
:100D30000CD015B16B6801336B60606828B14368F3
:100D4000013B43600BB9FFF7D0FF6560204638BD1B
:100D50000B461146002210B50446C0E9002283600C
:100D60000BB9204610BDFFF7DCFFFAE703468068A9
:100D700020B30278032A1AD8DFE802F00417021B16
:100D8000052070471B685A684368D05C2D2812D034
:100D9000A0F13003092B0ED974280ED066280CD090
:100DA000A0F16E035842584170470620704700205A
:100DB000704704207047032070470220704710B529
:100DC0000446FFF7D3FF02280ED0C31EDBB2012B6F
:100DD00014D82268A36850685B680A22BDE81040F6
:100DE0000021184402F0F8BB2268A36852685B68CF
:100DF000D05CA0F174035842584110BD0020FCE7BC
:100E00000B461146002210B50446C0E900220D48E9
:100E1000C4E90202A3B11A78032A06D082B90A688B
:100E200050685A68825C6E2A07D00A68586852680F
:100E30009B6802441B1AA260E3602046FFF771FF23
:100E4000204610BDF9360A0838B500250B46044681
:100E50001146C0E90055C0E90255C0E904554BB13F
:100E60001A78012A06D103F11002DB68826043611F
:100E7000FFF757FF204638BD10B54369044663B1FC
:100E80008068013BE0601030A0602061636113B1B5
:100E9000FFF7DAFEA060012000E0184610BD10B593
:100EA0007D210446FFF731FF01232046237110BD49
:100EB00008B50379012B02D0022B04D008BD2C21E8
:100EC000FFF723FFFAE73A21FAE710B50446FFF7E8
:100ED000EFFF20467B21FFF718FF002320462371F8
:100EE00010BD000038B504460D46FFF7E1FF23684A
:100EF00020462A46DB680349984701232046237190
:100F000038BD00BF90360A0838B504460D46FFF7D5
:100F1000CFFF236820462A46DB6803499847012310
:100F20002046237138BD00BF93360A082DE9F041F1
:100F30000D46174622210446FFF7E7FE2946DFF853
:100F400098802F44BD422A4638D015F8016B222ED6
:100F500003D05C2E01D01F2EF4D82368521A2046ED
:100F60009B6898475C212046FFF7CFFE0D2E0AD8DC
:100F7000072E1CD9A6F10803052B18D8DFE803F0CB
:100F80000D0F11171315222E01D05C2E0FD13146F3
:100F90002046FFF7BAFE2946D4E76221F8E774211C
:100FA000F6E76E21F4E76621F2E77221F0E72368A5
:100FB000324641462046DB689847ECE78D4204D034
:100FC000236820469B686A1A984722212046FFF72B
:100FD0009CFEBDE8F08100BF96360A0870B5044655
:100FE0000D461646FFF764FF204632462946FFF7B6
:100FF0009DFF02232046237170BD70B504460D4647
:101000001646FFF755FF204632462946FFF78EFF6A
:1010100001232046237170BD80680368DB68184790
:101020007047084611B10B685B68184770477047F6
:101030007047704738B504460D4600682E2102F00F
:1010400006FA23680246C01A286020B1137803B15B
:1010500001322068226038BD10B504460C2101F031
:1010600036FC204610BD10B50446042101F02FFCCB
:10107000204610BD10B50446042101F028FC20468E
:1010800010BD08B502F0EDF9B0FA80F0400908BDD6
:1010900010B50C4601F052FA844205D101F04EFA27
:1010A000BDE8104001F030BA01F086FA844202D166
:1010B00001F082FAF4E701F0ABF9844205D101F0C6
:1010C000A7F9BDE8104001F0A0B92CB12368204673
:1010D000BDE810405B68184710BD38B505460846A6
:1010E0000C4602F0D0F9214602462846BDE83840B9
:1010F000FFF783BF70B5044608460D4602F0C3F9FA
:101100002368024629462046BDE87040DB68184740
:1011100007B503688DF807100122DB680DF10701A0
:10112000984703B05DF804FB0EB403B503AB53F866
:10113000042B0021006A019301F004F802B05DF86D
:1011400004EB03B0704700002DE9F74F4FF014088F
:10115000D0E9009517464C4608FB05F50093AB1007
:10116000174D5D43002D23DD6E1008FB06F004EBE8
:10117000000ABAF804B03A465F4528BF5A462058DC
:10118000019102F088F90123019978B95F4503D1F3
:10119000009A13703546E5E78CBF01200020002837
:1011A000F8D0AE1B0AF11404013EF3E7C00FF6E7D6
:1011B000A4EB09040248A410604303B0BDE8F08F1B
:1011C000CDCCCCCC7FB50369067E019103B3F9B1D8
:1011D000002500F10C04039503A901A8FFF72AFFDD
:1011E0000146A8B10DF10B032046039A8DF80B5070
:1011F000FFF7AAFF9DF80B3053B11423246803FBBB
:101200000044B4F906300834002BA8BFDEB2E3E78F
:10121000304604B070BD000010B50A4C2378BFF30F
:101220005B8FDB070BD42046FEF748FF38B1204622
:10123000FEF749FF044A0549054801F043FB04480D
:1012400010BD00BFAC0000207000002031100A0863
:101250000000002010B50A4C2378BFF35B8FDB073A
:101260000BD42046FEF72AFF38B12046FEF72BFFAD
:10127000044A0549054801F025FB044810BD00BF9C
:10128000B0000020700000202F100A080400002089
:1012900038B500250446C0E90055C0E9045585600D
:1012A000856140F8245FFFF781F9FFF7B5FFE06142
:1012B000FFF7D0FF25732062204638BD10B50B4CD8
:1012C0002378BFF35B8FDB070ED42046FEF7F6FED4
:1012D00050B10748FFF7DCFF2046FEF7F4FE054A51
:1012E0000549034801F0EEFA014810BDA8000020AE
:1012F000B8000020700000206F170A080023024A7F
:1013000002490348FFF7BCBA4D160A08D9150A0866
:1013100059150A0800231A4619461846FFF7B0BAAD
:1013200037B504460D6951F8043B01A80093FFF757
:1013300085FB6A4629462046FFF70AFD01A8FFF70C
:1013400067FB204603B030BD37B504468D6851F8C1
:10135000043B01A80093FFF771FB6A46294620462B
:10136000FFF772FD01A8FFF753FB204603B030BD25
:1013700037B50446CD6851F8043B01A80093FFF748
:101380005DFB6A4629462046FFF73AFD01A8FFF7B4
:101390003FFB204603B030BD70B58AB00D46014614
:1013A00004A8FFF7D1FF144E04A8FFF765FDE8B1CC
:1013B000684604A9FFF7DCFF31460298FFF761FE9B
:1013C000044610B12C1E18BF012401A8FFF720FB12
:1013D000002CE9D0684604A9FFF7A2FF6846FFF792
:1013E000EEFC286001A8FFF713FBDDE705A8FFF777
:1013F0000FFB0AB070BD00BF9C360A0837B50C461B
:1014000019492046154602F02CF848B901F096F823
:101410004FF4165101F074F801F090F803B030BDAC
:101420002046124902F01DF840B901F0C5F84FF40A
:10143000165101F065F801F0BFF8EFE720460C49BE
:1014400002F00FF870B94FF4165301A92846019322
:10145000FFF7A2FF00F0DCFF019900F0D3FF00F0DE
:10146000D7FFDBE70020D9E7A1360A08A8360A082B
:10147000AB360A0870B51426D0E90053044606FBC3
:101480000356AE4205D005F10800FFF7F3FF14350F
:10149000F7E72068FFF790FA204670BD70B5044664
:1014A000D0E9005305EB0316AE4204D0284600F005
:1014B0008FFE1035F8E72068FFF77EFA204670BDF2
:1014C00010B504460C30FFF7D5FF2046FFF7E6FFC6
:1014D000204610BD10B50446034B40F8043BFFF70F
:1014E000EFFF204610BD00BF2C360A0810B5044699
:1014F000FFF7F0FF2046242101F0E9F9204610BD56
:1015000010B50446024B0360FFF7E4FF204610BD10
:101510004C370A0810B50446FFF7F2FF2046242195
:1015200001F0D5F9204610BD0022C0E900228260FA
:1015300010B50C680A6004604C684A6044608C68AE
:101540008A60846010BD10B5044603681868FFF710
:1015500045F8204610BD00002DE9F04F87B00393F9
:101560001C4B80465B688946C3F3080316466BB97B
:10157000FFF7A4FE044600F12403406A0593FFF739
:1015800025F8237B2BB105A8FFF7DDFF07B0BDE8E9
:10159000F08F01235FFA89F92373D4E9005305EB37
:1015A000830AAA4512D055F8047B3146381DFFF74F
:1015B00009FE8145F5D3039A3B680092D3F808B041
:1015C0004A46334641463846D847EAE70023237364
:1015D000D9E700BF00ED00E02DE9F74F9B461A4B1D
:1015E00080465B688946C3F3080316466BB9FFF76C
:1015F00065FE044600F12403406A0193FEF7E6FF0E
:10160000237B2BB101A8FFF79EFF03B0BDE8F08F4D
:101610000123F6B22373D4E9005305EB830A554541
:101620000ED055F8047B5946381DFFF7CBFD864296
:10163000F5D33B684A4641463846DB689847EEE7B3
:1016400000232373DEE700BF00ED00E02DE9F34146
:10165000164B05465B680F46C3F308031BBBFFF739
:101660002DFE044600F12403406A0193FEF7AEFF0D
:10167000D4E90063462406EB8308B04509D101A8EC
:10168000FFF761FFA542B4BF0020012002B0BDE812
:10169000F08156F8040B39460430FFF793FD84427D
:1016A000A8BF0446E9E70020F0E700BF00ED00E036
:1016B0000B4670B5044605C800EB8202824207D093
:1016C00001461D6851F8046BAE4203D00846F5E7A9
:1016D000002070BD521A01F067FE63680120013BD3
:1016E0006360F6E71FB5044600F12403406A0191E8
:1016F0000393FEF76BFF204601A9FFF7D9FF18B14E
:1017000063680BB9FFF706FE03A8FFF71CFF04B0E0
:1017100010BD182370B50446D0E9045603FB0656E5
:10172000AE4215D0204605F11001FFF7C1FF6368F6
:101730000BB9FFF7EFFDE06929690368DB6898479B
:10174000696919B1206A0368DB6898471835E7E7CB
:101750001826D4E9045306FB0356AE4204D02846AB
:1017600000F036FD1835F8E70023636170BD73B5EE
:101770000446FFF7CFFD04F12403606A0193FEF7EE
:1017800025FF2046FFF7C5FF01A8FFF7DCFE606AD2
:1017900008B1FEF713FFD4E90453182606FB0356DD
:1017A000AE4204D0284600F013FD1835F8E7206952
:1017B000FFF702F92068FFF7FFF8204602B070BD7E
:1017C0008842F8B506460C46154627D9904226D2DF
:1017D0000026A2F114056C1AA1F114070444AF42CB
:1017E0003DD0A4B12B682360AB88A380B5F9063047
:1017F000C4E902662661E380AB68A360AE60E3687B
:10180000EA68E260EB6023692A6922612B6105F1D5
:101810000800FFF72FFE143D143CE0E71FD000271F
:10182000AC421CD0A6B123683360A388B380B4F95E
:101830000630C6E902773761F380A368B360A7601A
:10184000F368E268F260E360336922693261236120
:1018500004F10800FFF70EFE14341436E0E7F8BD7B
:10186000F8B5D0E901539D4204460E4617460DDBFC
:101870000135002D006804DDA900FFF7A5F818B9AF
:10188000F8BDFFF799F800202060A5602568626820
:1018900005EB86019200A2EB8602081D01F084FD93
:1018A00045F826706368012001336360E8E737B5C7
:1018B000044600F12403406A0D460193FEF786FEBC
:1018C000D4E9003103EB810083421A460AD0126842
:1018D0000433AA42F8D101A8FFF735FE00252846B7
:1018E00003B030BD2A462046FFF7BAFF0546002860
:1018F000F1D06368012B01D1FFF700FD01A8FFF7CC
:1019000022FEECE78842F8B504460D46164614D987
:10191000904213D2A2F11006751AA1F110072C44BF
:10192000B74218D01CB13146204600F0B8FC304612
:1019300000F04EFC103E103CF2E70CD0B5420AD04D
:101940001CB12946204600F0AAFC284600F040FCC5
:1019500010351034F2E7F8BD70B50E1E054611DDE6
:101960003001FFF721F8044658B1D5E9001201EB28
:101970000212FFF7C7FF2868FFF71EF801202C604E
:10198000AE6070BD0024F6E72DE9F04F91460023CC
:10199000462297B00391D9F8041004469942C0E951
:1019A0000033C0E90233C0E90433CDE90A330276DB
:1019B0000C9323DCD9E90057142303FB0757AF42EC
:1019C0003BD029460DA800F06AFC0DA911A80B9E7A
:1019D00000F065FCDDE90B1399421BDA0A9B0B9AB8
:1019E00003EB0616314603EB021206F11000FFF777
:1019F00089FFEEB90B9B01330B9311E00AA8FFF7A7
:101A0000ABFF0028D6D10AA8FFF748FD204617B043
:101A1000BDE8F08F01310AA8FFF79EFF0028DDD155
:101A200011A800F0D5FB0DA800F0D2FB1435C6E7D5
:101A3000304611A900F033FCDCE700264FF0140A11
:101A40003746CDE90D660F96DDE90A239E4280F206
:101A500097803301D35808930BB90136F4E70AFB9A
:101A600006F3099702930DAD09A908A8FFF7E2FA5A
:101A700083460028F1D00146099A28460DF11F033C
:101A80008DF81F70FFF760FB9DF81F800190B8F183
:101A9000000F66D1BDF82430CDE91388ADF8483089
:101AA0004FF6FF73CDF844B0ADF84A30CDF854800E
:101AB000D5E9013293421ADB03F1010BBBF1000FB0
:101AC0004ADD0AFB0BF0FEF76FFF0490002845D0BB
:101AD000D5E900120AFB0212FFF772FE049B286888
:101AE0000493FEF769FF049BC5F808B02B60019BC7
:101AF000D5F800B00AFB03F36A680BEB030101F1B0
:101B000014000AFB02B204910593FFF759FE0499F1
:101B1000A9B1119A059B4BF80320BDF848308B8082
:101B2000BDF94A30C1E902770F61CB80139B8B600E
:101B3000149B1397CB60159B14970B6115976B68DB
:101B400001336B6013A8FFF795FCB8F1000F08D0C4
:101B50000DA8FFF78FFC56E74346C0E74FF001089A
:101B6000F0E7019B2D680AFB0355089B1B782BB9F6
:101B7000D9F80030029A13441B7CEB80083573E7D8
:101B80002168226062686360A3680B920C9A0C93D0
:101B9000E368A2600D9A0D932369E2600E9A0E939A
:101BA000636922610F9A0F93039B0A916261237606
:101BB000CEE700007FB505460E460446084B1146A9
:101BC00045F8043B01A8FEF750FB314601AA284620
:101BD000FFF7DAFE01A8FEF707FB204604B070BD50
:101BE0002C360A08F0B50F4687B038462549164608
:101BF0001D460C9C01F035FC00BBE4B1294668464B
:101C0000FFF792FC2420204900F063FE054670B1E6
:101C1000694603A8FEF729FB314603AA2846FFF7C9
:101C2000C9FF03A8FEF7E0FA184B2C622B60684648
:101C3000FEF7DAFA2C46204607B0F0BD38461449C4
:101C400001F00FFCE0B9002CF5D029466846FFF7FB
:101C50006BFC24200C4900F03CFE05460028E6D031
:101C6000694603A8FEF701FB314603AA2846FFF7A1
:101C7000A1FF03A8FEF7B8FA064B2C622B60D6E74B
:101C80000024D8E7B3360A0880380A084C370A0817
:101C9000B7360A0834370A08014B024A1A607047FF
:101CA000B4000020C8360A082DE9F047089DD0F896
:101CB000209004460E461746984600F03FFC8145AA
:101CC0004DD02B79190704D520466A695449FFF78E
:101CD0002BFAB8F1000F0DD05B212046FFF718FA60
:101CE00041462046FFF706FA236802222046DB68B9
:101CF0004C4998472B79DA0724D5D5F808802F214D
:101D0000404601F0DAFB08B100F1010841462046E7
:101D1000FFF7F0F92B799B0708D53A212046FFF70A
:101D2000F7F92046EA684049FFF7FEF92A79236867
:101D300012F0040F20464FF00202DB6814BF3B494B
:101D40003B4998472B7958071DD529690B461A46F8
:101D500013F8010B60B1202808D11946F7E7354880
:101D600000F067F90028ACD0BDE8F0872828EED154
:101D70002368521A2046DB689847236804222046CD
:101D8000DB682D49984700213846FEF771FD014672
:101D90002046FFF7AFF9236802222046DB6824497A
:101DA00098471EB131462046FFF7A4F92B7913F06E
:101DB000300F2CD023682149DB6802222046984747
:101DC0002B79D9060AD52368072220461C49DB68EF
:101DD00098472046AA691B49FFF7A6F92B799A066E
:101DE00011D5DB0605D5236802222046DB680F49A2
:101DF00098472368204614490A22DB689847204602
:101E0000E969FFF777F95D212046FFF781F923683B
:101E10002046BDE8F0470222DB680C49184700BFA6
:101E2000CC360A08D3360A0890360A08D6360A088D
:101E3000DB360A08E0000020D9360A08DE360A0838
:101E4000E1360A08E9360A08EC360A08F7360A08C5
:101E50002DE9F04385B0D0F8209005460F46904616
:101E60001E460C9C00F06AFB814505D1494800F0F4
:101E7000E0F8002840F08A804FF000092B6A464ABB
:101E800001A8019203938DF80890FFF71EF84946C8
:101E90004046FEF7EDFC80464049012201A8FFF7CD
:101EA0009DF84146FFF719F93FB13D49012201A8CC
:101EB000FFF794F83946FFF710F93EB1394901228E
:101EC00001A8FFF78BF83146FFF707F92379DF0701
:101ED0000ED5A6682F21304601F0EFFA00B1461C5E
:101EE0003149012201A8FFF779F83146FFF7F5F8EB
:101EF00023799E0707D52D49022201A8FFF76EF826
:101F0000E168FEF7EFFF2379580714D526693346B9
:101F10001F4613F8012B2AB1202A01D11E46F7E7EC
:101F2000282AF5D10222224901A8FFF757F83146A5
:101F3000BA1BFFF762F82379190707D51D4901225B
:101F400001A8FFF74BF86169FEF7DEFF2379DA0697
:101F500008D5042218490DEB0200FFF73FF8A169EC
:101F6000FEF7C0FF23799B0607D51449062201A876
:101F7000FFF734F8E169FFF7B0F801A8FEF78FFF2B
:101F8000286A022203680E49DB68984705B0BDE85D
:101F9000F08300BFE00000201C370A08A6360A08BC
:101FA000FA360A08FC360A0820360A08FE360A08FD
:101FB00001370A0804370A0806370A080B370A08E7
:101FC000F7360A08002340681A46FEF78DBC002247
:101FD00002214068FEF798BC002240681146FEF7D7
:101FE0008BBC002240681146FEF796BC0023406877
:101FF0001A461946FEF798BC002340681A4619464F
:10200000FEF79ABC00214068FEF7BEBC0021406884
:10201000FEF7C2BC0022406881F00101FEF794BCCB
:1020200000224068FEF7A0BC002240681146FEF77F
:10203000A3BC002240681146FEF78EBC70B5154661
:102040008EB0044608A8FEF7BDFD1122002103A8AA
:1020500001F0C4F90026284601F015FA0A4B009653
:1020600081B25B68284603AAFEF7EAFB30B131462D
:102070002046FEF7C7FD20460EB070BD204603A9DE
:10208000FEF7AEFDF7E700BF60050020024B034AF4
:102090001A6000225A607047E000002094370A0856
:1020A000F8B506460D4600248F18BD420CD03368A3
:1020B00030469B6815F8011B9847031E01DB1C4442
:1020C000F3E7002C08BF1C462046F8BD70B5054656
:1020D0000C46084649B101F0D6F92B680246214664
:1020E0002846BDE87040DB68184770BD03689B68F0
:1020F000184738B50D210546FFF7F8FF0A210446B9
:102100002846FFF7F3FF204438BD0023012A98BF7B
:102110000A2230B58BB00C468DF8243009A925462B
:10212000B4FBF2F404FB1253DBB2092B94BF30333F
:102130003733DBB2AA4201F8013DF0D9FFF7C6FF01
:102140000BB030BD2DE9F04186B000AF05460E461C
:10215000381D142114463B60FEF73EFC13280ED8B0
:102160002846391DFFF7B2FF04461EB12846FFF787
:10217000C0FF044420461837BD46BDE8F08100F199
:10218000080323F00703E846ADEB030D2246411C8C
:102190003B686846FEF720FC69462846FFF796FF35
:1021A0000446C546E1E710B50446FEF728FC204684
:1021B00010BD000000230348034A0449836000F077
:1021C00081BB00BFE800002070000020A7210A08A2
:1021D00010B504460068FEF7EFFB204610BD10B5B1
:1021E0000446006808B1FEF7E7FB0023C4E90133A9
:1021F000236010BD38B504460D4600680131FEF776
:10220000E3FB10B1C4E90005012038BD10B5036837
:10221000044623B143688B4201D3012010BD204600
:10222000FFF7E8FF0028F9D0A368002BF5D122685A
:102230001370F2E770B50E46114604461546FFF7D7
:10224000E5FF20B92046FFF7CAFF204670BD2A46A9
:1022500031462068A56001F099F800212268A36842
:10226000D154F2E738B5054600680C4668B16A6893
:102270008B689A4207D3096801F0FDF8A368AB6048
:102280000023A36038BDFEF797FB23682B606368CB
:102290006B60A368AB600023C4E90033F1E700235F
:1022A00010B50446C0E9003383600373FFF7DAFF1B
:1022B000204610BD884210B50B46044604D009687C
:1022C00021B19A68FFF7B6FF204610BDFFF787FFE0
:1022D000FAE7002310B50446C0E9003383600373B6
:1022E000FFF7E8FF204610BD10B50446006818B19E
:1022F000FEF762FB0023236010BD10B50446FFF714
:10230000F3FF204610BD00000222002010B5084B4C
:10231000084C1A60084B2060A080A071A360FEF7F3
:10232000B7FA2046BDE81040044A054900F0CABA91
:1023300004010020F80000200000FFFF70000020D2
:10234000FB220A08024B1A68024B1A60704700BF52
:10235000080000200801002070474174704708B54C
:10236000007CFEF71DFA20EAE07008BD08B5007C8D
:10237000FEF7F6F920EAE07008BD08B5007CFEF72C
:10238000FFF940EAE07008BD08B5007CFEF7F0F9FF
:1023900040EAE07008BD007CFEF7FAB970B5467CF3
:1023A00004460D462EB12946207CBDE87040FEF75C
:1023B000CFB9007CFEF7F4F90028F4DC304670BD9C
:1023C00010B50446142100F082FA204610BD00002A
:1023D0004FF0000C10B50446084611464FF47A72CF
:1023E000C4E901C2044A20742260012262741A46C0
:1023F000FEF79EF9204610BDEC370A080023007C4A
:10240000FEF7D6B90022FFF7F9BF007CFEF798B9B6
:1024100038B50D4D2978BFF35B8F11F0010411D150
:102420002846FDF74BFE68B12146084A084B09488B
:10243000FFF7CEFF2846FDF746FE074A0749054845
:1024400000F040FA034838BD0C01002010010020C4
:1024500094010020180200207000002059230A086F
:1024600041747047704708B50021007CFEF7D0F931
:1024700040EAE07008BD08B50121007CFEF7C8F90C
:1024800040EAE07008BD08B5007CFEF7B9F920EA23
:10249000E07008BD08B5007CFEF7AAF920EAE070FC
:1024A00008BD38B50446007C0D46FEF7A9F90028A2
:1024B00001DC607C28B12946207CFEF7B1F920EAD6
:1024C000E07038BD007CFEF7B3B910B504461421A6
:1024D00000F0FDF9204610BD10B54FF47A730446A4
:1024E00008460021C4E90113044B20742360012332
:1024F00011466374FEF764F9204610BD1C380A08C3
:102500000022007CFEF764B9007CFEF769B9000088
:1025100010B504461422002100F060FF054B204650
:102520006360054BE36040F2011323818123238222
:1025300010BD00BF5C0200205D03002030B50F4DD0
:1025400087B001A8FFF7E4FF2978BFF35B8F11F094
:10255000010410D12846FDF7B1FD60B1214601AA62
:102560000748FFF7B9FF2846FDF7ADFD054A0649C4
:10257000034800F0A7F9024807B030BD2C02002044
:10258000340200207000002065240A0810B50446BB
:102590001422002100F022FF054B20466360054B0A
:1025A000E36040F2011323818123238210BD00BF29
:1025B000DE030020DF04002010B50F4C86B001A818
:1025C000FFF7E4FF2378BFF35B8FDB0710D42046CF
:1025D000FDF774FD60B1012101AA0848FFF77CFFF7
:1025E0002046FDF770FD064A0649044800F06AF9E6
:1025F000024806B010BD00BF300200204802002093
:102600007000002065240A08002240681146FEF789
:1026100083B9F0B5154689B011220E460446002153
:1026200003A800F0DBFE284600F02DFF002781B252
:1026300073682846009703AAFEF702F930B13946BD
:102640002046FEF7DFFA204609B0F0BD204603A978
:10265000FEF7C6FAF7E7002240681146FEF77CB99C
:10266000002240681146FEF787B900224068FEF755
:102670007BB90022406881F00101FEF765B90023B3
:1026800040681A461946FEF757B9002340681A46B3
:102690001946FEF749B9002240681146FEF72CB9E9
:1026A000002202214068FEF72FB9002340681A4635
:1026B000FEF71AB90422024B5A60024A1A607047A8
:1026C000600500204C380A08014B1860704700BFB5
:1026D0000C00002008B5134B43B1FFF72FFF036830
:1026E0001B699847002801DDAFF300800E4B43B112
:1026F000FFF78EFE03681B699847002801DDAFF3E2
:1027000000800A4B0BB1AFF30080094B43B1FFF7D8
:1027100053FF03681B699847002801DDAFF3008071
:1027200008BD00BF00000000000000000000000025
:102730000000000008B5FFF7CDFFFDF767FF014B74
:10274000186008BD700500200248034A0349121AA8
:1027500000F01CBE0040024004400240B8390A08A4
:10276000002307B51A466FF077010093FEF7AAF829
:1027700003B05DF804FB000007B543880A2B08D0BE
:10278000502B0BD1094B1B684BB103B05DF804EB28
:102790001847FFF7E5FF03B05DF804FB00231A4676
:1027A0006FF077010093FEF78DF8F4E76C050020D9
:1027B00038B5124C00211248FEF716F9114D236866
:1027C000AB420CBF012200220F4B1A7002D0FFF760
:1027D000BBFF2560FDF70AFF044600F007FE0B4B28
:1027E00013B12046AFF3008000210848FEF774F8CB
:1027F000BDE8384000210648FEF75AB800400240C4
:10280000C9260A081E1C279A68050020000000003F
:1028100079270A08002370B5202543801423084E29
:1028200004460380314685600561284600F053F870
:1028300031466060284600F04EF8E060204670BDEA
:1028400080380A0830B50F4D87B02978BFF35B8F09
:1028500011F0010413D12846FDF730FC78B101A82E
:10286000FFF7D8FF214601AA0748FEF71BF92846C3
:10287000FDF729FC054A0649034800F023F8024801
:1028800007B030BD740500207805002070000020DE
:102890004B0A0A08002313B5074C1A46194620466E
:1028A0000093FEF7C5F92046044A054902B0BDE889
:1028B000104000F007B800BF8C0500207000002019
:1028C000810B0A080B460146184600F051BDFDF782
:1028D000E8BBFDF7E2BBFDF7E2BB000081F0004181
:1028E00002E000BF83F0004330B54FEA41044FEAF5
:1028F000430594EA050F08BF90EA020F1FBF54EA90
:10290000000C55EA020C7FEA645C7FEA655C00F02B
:10291000E2804FEA5454D4EB5555B8BF6D420CDDFC
:102920002C4480EA020281EA030382EA000083EA7F
:10293000010180EA020281EA0303362D88BF30BD1F
:1029400011F0004F4FEA01314FF4801C4CEA113175
:1029500002D0404261EB410113F0004F4FEA0333D4
:102960004CEA133302D0524263EB430394EA050F5F
:1029700000F0A780A4F10104D5F1200E0DDB02FACE
:102980000EFC22FA05F2801841F1000103FA0EF262
:10299000801843FA05F359410EE0A5F120050EF128
:1029A000200E012A03FA0EFC28BF4CF0020C43FA59
:1029B00005F3C01851EBE37101F0004507D54FF066
:1029C000000EDCF1000C7EEB00006EEB0101B1F5B6
:1029D000801F1BD3B1F5001F0CD349085FEA3000FC
:1029E0004FEA3C0C04F101044FEA445212F5800F07
:1029F00080F09A80BCF1004F08BF5FEA500C50F1A4
:102A0000000041EB045141EA050130BD5FEA4C0C86
:102A1000404141EB0101013C28BFB1F5801FE9D2E3
:102A200091F0000F04BF01460020B1FA81F308BF06
:102A30002033A3F10B03B3F120020CDA0C3208DDD2
:102A400002F1140CC2F10C0201FA0CF021FA02F1AD
:102A50000CE002F11402D8BFC2F1200C01FA02F11D
:102A600020FA0CFCDCBF41EA0C019040E41AA2BF42
:102A700001EB0451294330BD6FEA04041F3C1CDA0A
:102A80000C340EDC04F11404C4F1200220FA04F02A
:102A900001FA02F340EA030021FA04F345EA0301D4
:102AA00030BDC4F10C04C4F1200220FA02F001FA96
:102AB00004F340EA0300294630BD21FA04F0294618
:102AC00030BD94F0000F83F4801306BF81F48011B1
:102AD0000134013D4EE77FEA645C18BF7FEA655C24
:102AE00029D094EA050F08BF90EA020F05D054EAF6
:102AF000000C04BF1946104630BD91EA030F1EBFFB
:102B00000021002030BD5FEA545C05D140004941FE
:102B100028BF41F0004130BD14F580043CBF01F5F1
:102B2000801130BD01F0004545F0FE4141F47001D7
:102B30004FF0000030BD7FEA645C1ABF19461046B2
:102B40007FEA655C1CBF0B46024650EA013406BFB3
:102B500052EA033591EA030F41F4002130BD00BF72
:102B600090F0000F04BF0021704730B54FF480642F
:102B700004F132044FF000054FF0000150E700BFB0
:102B800090F0000F04BF0021704730B54FF480640F
:102B900004F1320410F0004548BF40424FF00001FC
:102BA0003EE700BF42004FEAE2014FEA31014FEA3F
:102BB00002701FBF12F07F4393F07F4F81F060518E
:102BC000704732F07F4208BF704793F07F4F04BFD9
:102BD00041F40021704730B54FF4607401F00045B6
:102BE00021F000411CE700BF50EA010208BF704716
:102BF00030B54FF000050AE050EA010208BF704707
:102C000030B511F0004502D5404261EB41014FF46F
:102C1000806404F132045FEA915C3FF4D8AE4FF077
:102C200003025FEADC0C18BF03325FEADC0C18BF5A
:102C3000033202EBDC02C2F1200300FA03FC20FAAB
:102C400002F001FA03FE40EA0E0021FA02F11444F8
:102C5000BDE600BF70B54FF0FF0C4CF4E06C1CEA11
:102C600011541DBF1CEA135594EA0C0F95EA0C0F82
:102C700000F0DEF82C4481EA030621EA4C5123EAF5
:102C80004C5350EA013518BF52EA033541F4801124
:102C900043F4801338D0A0FB02CE4FF00005E1FBD7
:102CA00002E506F00042E0FB03E54FF00006E1FB21
:102CB00003569CF0000F18BF4EF0010EA4F1FF0464
:102CC000B6F5007F64F5407404D25FEA4E0E6D41A4
:102CD00046EB060642EAC62141EA55514FEAC520B5
:102CE00040EA5E504FEACE2EB4F1FD0C88BFBCF531
:102CF000E06F1ED8BEF1004F08BF5FEA500E50F1E2
:102D0000000041EB045170BD06F0004646EA0101A7
:102D100040EA020081EA0301B4EB5C04C2BFD4EBD9
:102D20000C0541EA045170BD41F480114FF0000ED2
:102D3000013C00F3AB8014F1360FDEBF002001F040
:102D4000004170BDC4F10004203C35DA0C341BDCBA
:102D500004F11404C4F1200500FA05F320FA04F08C
:102D600001FA05F240EA020001F0004221F00041C0
:102D700010EBD37021FA04F642EB06015EEA430E33
:102D800008BF20EAD37070BDC4F10C04C4F1200563
:102D900000FA04F320FA05F001FA04F240EA020016
:102DA00001F0004110EBD37041F100015EEA430EE7
:102DB00008BF20EAD37070BDC4F1200500FA05F207
:102DC0004EEA020E20FA04F301FA05F243EA020386
:102DD00021FA04F001F0004121FA04F220EA020095
:102DE00000EBD3705EEA430E08BF20EAD37070BDDB
:102DF00094F0000F0FD101F00046400041EB0101BB
:102E000011F4801F08BF013CF7D041EA060195F09C
:102E1000000F18BF704703F00046520043EB030356
:102E200013F4801F08BF013DF7D043EA0603704743
:102E300094EA0C0F0CEA135518BF95EA0C0F0CD04E
:102E400050EA410618BF52EA4306D1D181EA030194
:102E500001F000414FF0000070BD50EA410606BF8E
:102E60001046194652EA430619D094EA0C0F02D1D3
:102E700050EA013613D195EA0C0F05D152EA033618
:102E80001CBF104619460AD181EA030101F0004136
:102E900041F0FE4141F470014FF0000070BD41F07F
:102EA000FE4141F4780170BD70B54FF0FF0C4CF459
:102EB000E06C1CEA11541DBF1CEA135594EA0C0F78
:102EC00095EA0C0F00F0A7F8A4EB050481EA030EC5
:102ED00052EA03354FEA013100F088804FEA0333AC
:102EE0004FF0805545EA131343EA12634FEA02227A
:102EF00045EA111545EA10654FEA00260EF000413B
:102F00009D4208BF964244F1FD0404F5407402D28C
:102F10005B084FEA3202B61A65EB03055B084FEA1D
:102F200032024FF480104FF4002CB6EB020E75EB1A
:102F3000030E22BFB61A754640EA0C005B084FEA42
:102F40003202B6EB020E75EB030E22BFB61A7546BF
:102F500040EA5C005B084FEA3202B6EB020E75EB0A
:102F6000030E22BFB61A754640EA9C005B084FEA82
:102F70003202B6EB020E75EB030E22BFB61A75468F
:102F800040EADC0055EA060E18D04FEA051545EA7E
:102F900016754FEA06164FEAC30343EA52734FEA27
:102FA000C2025FEA1C1CC0D111F4801F0BD141EAA0
:102FB00000014FF000004FF0004CB6E711F4801F05
:102FC00004BF01430020B4F1FD0C88BFBCF5E06FE5
:102FD0003FF6AFAEB5EB030C04BFB6EB020C5FEAF5
:102FE000500C50F1000041EB045170BD0EF0004E4A
:102FF0004EEA113114EB5C04C2BFD4EB0C0541EA7C
:10300000045170BD41F480114FF0000E013C90E678
:1030100045EA060E8DE60CEA135594EA0C0F08BF3C
:1030200095EA0C0F3FF43BAF94EA0C0F0AD150EA3B
:1030300001347FF434AF95EA0C0F7FF425AF1046CE
:1030400019462CE795EA0C0F06D152EA03353FF4F6
:10305000FDAE1046194622E750EA410618BF52EA73
:1030600043067FF4C5AE50EA41047FF40DAF52EA47
:1030700043057FF4EBAE12E753B94AB9002908BF04
:1030800000281CBF4FF0FF314FF0FF3000F06EB949
:10309000ADF1080C6DE904CE00F006F8DDF804E0AF
:1030A000DDE9022304B070472DE9F047089E0D4684
:1030B00004468E46002B40F083808A42174647D94B
:1030C000B2FA82F34BB1C3F1200105FA03FE20FAF4
:1030D00001F19F4041EA0E0E9C404FEA1748BEFBAB
:1030E000F8FC1FFA87F908FB1CE20CFB09F0210C25
:1030F00041EA024290420AD9BA180CF1FF3180F03D
:103100001881904240F21581ACF1020C3A44121A37
:10311000B2FBF8F008FB102200FB09F1A4B244EA6C
:103120000244A14209D93C1900F1FF3280F0038129
:10313000A14240F2008102383C44641A002140EA76
:103140000C401EB10022DC40C6E90042BDE8F08719
:1031500002B9FFDEB2FA82F3002B4FD18D1A0121A2
:103160004FEA124E1FFA82F8B5FBFEFC0EFB1C550F
:1031700008FB0CF0220C42EA0545A84207D97D194C
:103180000CF1FF3202D2A84200F2E98094462D1AD7
:10319000B5FBFEF00EFB105508FB00F8A4B244EAA4
:1031A0000544A04507D93C1900F1FF3202D2A045E1
:1031B00000F2D9801046A4EB080440EA0C40C0E7B6
:1031C0008B4208D9002E00F0B1800021C6E900052D
:1031D0000846BDE8F087B3FA83F100294BD1AB4232
:1031E00002D3824200F2B980841A65EB0303012006
:1031F0009E46002EAAD0C6E9004EA7E79F40C3F125
:103200002002D1404FEA174EB1FBFEF01FFA87F8BB
:103210000EFB101124FA02F29D4000FB08FC2A4329
:10322000150C45EA0145AC4504FA03F409D97D19AA
:1032300000F1FF3180F08F80AC4540F28C80023885
:103240003D44A5EB0C05B5FBFEF10EFB115C01FB4B
:1032500008F995B245EA0C45A94507D97D1901F150
:10326000FF3274D2A94572D902393D44A5EB090554
:1032700041EA004178E7C1F120078B4022FA07FCC0
:103280004CEA030C25FA07F44FEA1C4EB4FBFEF996
:103290001FFA8CF80EFB194420FA07F309FB08FA11
:1032A0008D401D432B0C43EA0444A24502FA01F26F
:1032B00000FA01F309D91CEB040409F1FF3048D2EC
:1032C000A24546D9A9F102096444A4EB0A04B4FB5F
:1032D000FEF00EFB104400FB08FAADB245EA0444D0
:1032E000A24508D91CEB040400F1FF352DD2A245FC
:1032F0002BD90238644440EA0940A0FB0289A4EBC0
:103300000A044C45C6464D4619D316D05EB1B3EB00
:103310000E0264EB050404FA07F722FA01F31F43D7
:10332000CC40C6E900740021BDE8F0873146304644
:103330000CE78C46EBE61046FFE64345E6D2B8EBD9
:10334000020E69EB0C050138E0E72846D3E7114689
:103350008CE78146B9E7084673E7084649E7ACF1D0
:10336000020C3D4413E702383C4424E7704700BF99
:1033700010B504460448134620B10A4602202146EF
:10338000AFF3008010BD00BF000000000A4491426E
:1033900000F1FF3300D1704710B511F8014B914295
:1033A00003F8014FF9D110BD884210B501EB0204BA
:1033B00002D98442234607D8431EA14208D011F8FF
:1033C000012B03F8012FF8E7014602448A4200D19D
:1033D00010BD13F8014D02F8014DF7E70346024412
:1033E000934200D1704703F8011BF9E738B50D4B44
:1033F00004461D68AB6B7BB91820FDF7D5FA0A4A65
:103400000A4BA863C0E90023094B012283600B2308
:1034100083810023C0E904230022AB6B1C615A6145
:1034200038BD00BF0C0000200E33CDAB34126DE66A
:10343000ECDE05000346C9B2184613F8012B12B1A1
:103440008A42F9D17047002918BF0020704710B593
:103450000446FFF7EFFF18B9204600F014F82044A7
:1034600010BD10F8012B11F8013B012A28BF9A4228
:10347000F7D0D01A7047034611F8012B03F8012B3F
:10348000002AF9D17047034613F8012B002AFBD11B
:10349000181A0138704710B56AB10139841810F84C
:1034A000013B11F8012F934203D1A04201D0002B20
:1034B000F5D1981A10BD1046FCE738B503460C4606
:1034C00069B9BDE83840FFF7B5BF0546431C214642
:1034D0001846FFF7AFFF0028F7D1284638BD002572
:1034E000F5E700002DE9F0478C468646394E6046E8
:1034F0001CF8014BA55D15F00805F8D12D2C33D132
:103500004FF001089CF8004000F1020C002B5CD049
:10351000102B0CD1302C0AD19CF8000000F0DF00F9
:1035200058284DD110239CF801400CF1020C0026C4
:1035300008F10047013FB7FBF3F9304603FB197A66
:10354000A4F13005092D18D82C46A34224DD751CA2
:1035500007D081451DD301D1A2451ADB012600FB0E
:1035600003401CF8014BEBE72B2C08BF9CF80040F4
:10357000A84608BF00F1020CC8E7A4F14105192DC7
:1035800001D8373CE1E7A4F16105192D04D8573C77
:10359000DBE74FF0FF36E4E7731C06D12223384601
:1035A000CEF8003042B9BDE8F087B8F1000F00D086
:1035B0004042002AF7D00EB10CF1FF311160F2E762
:1035C0003024002BB3D10823B1E7302CA4D00A2338
:1035D000ADE700BF82380A0813460A460146024892
:1035E0000068FFF77FBF00BF0C00002021000A0821
:1035F00061000A0889000A088D000A08000000001E
:1036000054656D70657261747572653A20252E324D
:10361000662C2048756D69646974793A20252E32CC
:103620006600000000000000000000000000000034
:1036300000000000A9000A08CD000A0800000000F0
:1036400000000000D9000A080D010A08A91C0A0898
:10365000CF000A0800000000000000004B0A0A0822
:10366000950A0A086D0A0A084D0A0A08750A0A0826
:103670007D0A0A08850A0A088D0A0A080000000067
:1036800000000000910B0A08810B0A08830B0A084E
:1036900025640025750075253034780062617564F5
:1036A0000053657269616C005553425365726961DC
:1036B0006C31004A534F4E53747265616D4C6F67A5
:1036C00048616E646C657200617070002530313045
:1036D0007520005D20002C200028293A2000205B66
:1036E00000636F6465203D20002569006465746196
:1036F000696C73203D20000D0A006D0063006C6E44
:1037000000666E007400636F6465006465746169CF
:103710006C000000000000000000000033100A08E8
:1037200059100A0819100A08770C0A08000000004E
:1037300000000000D5140A08ED140A08A91C0A08A4
:10374000CF000A08000000000000000001150A0870
:1037500015150A08511E0A0821100A080000000069
:103760000000000031100A0867100A08E51B0A086B
:1037700023100A0800000000000000002F100A08B3
:1037800075100A08FD130A0891100A0800000000CD
:1037900000000000C51F0A08CF1F0A08D91F0A0829
:1037A000E31F0A08ED1F0A08F91F0A0805200A0886
:1037B0000D200A0815200A0821200A0829200A08D5
:1037C00033200A083D200A0825592D256D2D256432
:1037D0005425483A254D3A2553257A006173637480
:1037E000696D6500000000000000000059230A0810
:1037F000C1230A089D230A08A1200A086D230A088C
:1038000089230A087B230A0897230A085B230A08EE
:103810005F230A08000000000000000065240A0879
:10382000CB240A08A3240A08A1200A0895240A0820
:1038300067240A0877240A08C5240A0887240A0886
:1038400061240A080000000000000000AB260A08FE
:10385000A1260A0897260A0809260A088B260A08BC
:103860007F260A0805200A080D200A0873260A0880
:103870006B260A0861260A0857260A0813260A0832
:103880000000202020202020202020282828282850
:103890002020202020202020202020202020202028
:1038A0002020881010101010101010101010101080
:1038B0001010040404040404040404041010101080
:1038C000101010414141414141010101010101013B
:1038D00001010101010101010101010101101010AB
:1038E000101010424242424242020202020202020E
:1038F000020202020202020202020202021010107E
:103900001020000000000000000000000000000087
:1039100000000000000000000000000000000000A7
:103920000000000000000000000000000000000097
:103930000000000000000000000000000000000087
:103940000000000000000000000000000000000077
:103950000000000000000000000000000000000067
:103960000000000000000000000000000000000057
:103970000000000000000000000000000000000047
:1039800000000000D1020A08991C0A088D200A08CC
:10399000B5210A0809230A0845230A08B5260A089A
:1039A00095280A0800000000000000000000000048
:0839B000F8F6FF7F01000000A2
:0439B800000000000B
:1039BC0064370A087C370A08DC370A081000002034
:1039CC0000000000000000000000000000000000EB
:1039DC0000000000000000000000000000000000DB
:1039EC0000000000000000000000000000000000CB
:1039FC0000000000000000000000000000000000BB
:103A0C0000000000000000000000000000000000AA
:103A1C00000000000000000000000000000000009A
:103A2C00FFFFFFFF00000102030405060708090A57
:103A3C000B0C0D0E0F101112131415161718191A52
:083A4C001B1C1D1E1F20280099
:043A5400785634125A
:04000005080A0020C5
:00000001FF
